:020000040800F2
:100000000000082461110008A1100008A7100008D2
:10001000AD100008B3100008B9100008000000007F
:10002000000000000000000000000000BF100008F9
:10003000CD10000800000000DB100008E9100008E7
:10004000B1110008B1110008B1110008B111000888
:10005000B1110008B1110008B1110008B111000878
:10006000B1110008B1110008B1110008B111000868
:10007000B1110008B1110008B1110008B111000858
:10008000B1110008B1110008B1110008B111000848
:10009000B1110008B1110008B1110008B111000838
:1000A000B1110008B1110008B1110008B111000828
:1000B000B1110008B1110008B1110008B111000818
:1000C000B1110008B1110008B1110008B111000808
:1000D000B1110008B1110008B1110008B1110008F8
:1000E000B1110008B111000800000000B1110008B2
:1000F000B1110008B1110008B1110008B1110008D8
:10010000B1110008B1110008B1110008B1110008C7
:10011000B1110008B1110008B1110008B1110008B7
:10012000B1110008B1110008B1110008B1110008A7
:10013000B1110008B1110008B1110008B111000897
:10014000B1110008B111000800000000000000001B
:10015000B1110008B1110008B1110008B111000877
:10016000B1110008B1110008B1110008B111000867
:10017000B1110008B1110008B11100080000000021
:10018000B1110008B1110008B1110008B111000847
:10019000B1110008B1110008B1110008B111000837
:1001A000B1110008B1110008B1110008B111000827
:1001B000B1110008B1110008B1110008B111000817
:1001C000B1110008B1110008B1110008B111000807
:1001D000B1110008B1110008B1110008B1110008F7
:1001E000B1110008B1110008B1110008B1110008E7
:1001F000B1110008B1110008B1110008B1110008D7
:10020000B1110008B1110008B1110008B1110008C6
:10021000B1110008B1110008B1110008B1110008B6
:10022000B1110008B1110008B1110008B1110008A6
:10023000B1110008B1110008B1110008B111000896
:10024000B1110008B1110008B1110008B111000886
:10025000B1110008B1110008B1110008B111000876
:10026000B1110008B1110008B1110008B111000866
:10027000B1110008B1110008B1110008B111000856
:10028000B1110008B1110008B11100080000000010
:08029000B1110008B1110008D2
:1002A00010B5054C237833B9044B13B10448AFF3B0
:1002B00000800123237010BD940000240000000082
:1002C000386E000808B5034B1BB103490348AFF370
:1002D000008008BD0000000098000024386E00086F
:1002E000034613F8012B002AFBD1181A0138704776
:1002F00001F0FF01102A2BDB10F0070F08D010F8D7
:10030000013B013A8B422DD010F0070F42B3F6D1DA
:10031000F0B441EA012141EA014122F007047FF0F3
:1003200000070023F0E80256083C85EA010586EA4A
:10033000010685FA47F5A3FA87F586FA47F6A5FA86
:1003400087F68EB9EED1F0BC01F0FF0102F0070292
:1003500032B110F8013B013A83EA010313B1F8D13D
:100360000020704701387047002D06BF354603381E
:10037000073815F0010F07D1013015F4807F02BF57
:10038000013015F4C03F0130F0BC0138704700BFA8
:1003900053B94AB9002908BF00281CBF4FF0FF31EC
:1003A0004FF0FF3000F06EB9ADF1080C6DE904CEEE
:1003B00000F006F8DDF804E0DDE9022304B0704740
:1003C0002DE9F047089D04468C46002B40F08380C1
:1003D0008A42174647D9B2FA82F242B1C2F12000EE
:1003E00024FA00F09140974040EA010C94404FEA13
:1003F0001748230CBCFBF8F61FFA87FE08FB16C152
:1004000043EA014306FB0EF1994209D9FB1806F1B4
:10041000FF3080F01981994240F21681023E3B4440
:100420005B1AA4B2B3FBF8F008FB103344EA0344B0
:1004300000FB0EFEA64509D93C1900F1FF3380F000
:100440000581A64540F2028102383C4440EA06405C
:10045000A4EB0E0400261DB1D4400023C5E90043DF
:100460003146BDE8F08702B9FFDEB2FA82F2002A17
:1004700050D1CB1B4FEA174E1FFA87F80126B3FB6A
:10048000FEFC210C0EFB1C3341EA034108FB0CF37C
:100490008B4207D979180CF1FF3002D28B4200F25F
:1004A000E9808446C91AA3B2B1FBFEF00EFB10111D
:1004B00043EA014408FB00F8A04507D93C1900F1C4
:1004C000FF3302D2A04500F2D9801846A4EB0804FD
:1004D00040EA0C40BFE78B4209D9002D00F0B18003
:1004E0000026C5E9000130463146BDE8F087B3FA81
:1004F00083F6002E4AD18B4202D3824200F2B880AA
:10050000841A61EB030101208C46002DA8D0C5E9B7
:10051000004CA5E7C2F1200320FA03F6974001FA48
:1005200002F04FEA174ED9403043030CB1FBFEF600
:100530001FFA87F80EFB161143EA014306FB08F188
:10054000994204FA02F409D9FB1806F1FF3C80F045
:100550008D80994240F28A80023E3B445B1A81B210
:10056000B3FBFEF00EFB103341EA034100FB08F33E
:100570008B4207D9791800F1FF3C73D28B4271D9B5
:1005800002383944CB1A40EA064678E7C6F1200C17
:1005900003FA06F422FA0CF31C4320FA0CF701FAD2
:1005A00006F34FEA144E21FA0CF11F433B0CB1FB4A
:1005B000FEF91FFA84F80EFB191143EA014109FB09
:1005C00008FA8A4502FA06F200FA06F308D9611819
:1005D00009F1FF3048D28A4546D9A9F102092144E0
:1005E000A1EB0A01BFB2B1FBFEF00EFB101147EA0E
:1005F000014700FB08F8B84507D9E71900F1FF31BA
:100600002ED2B8452CD90238274440EA0940A7EB3E
:100610000807A0FB02894F45C64649461AD317D0A2
:100620005DB1B3EB0E0267EB010707FA0CFCF24079
:100630004CEA0202F740C5E9002700263146BDE832
:10064000F0872E4628460BE70646E9E61846FDE603
:100650004345E5D2B8EB020E69EB04010138DFE750
:100660000846D2E760468DE78146B9E7664675E7FA
:1006700030464AE7ACF1020C394413E702383C44F7
:1006800024E700BF704700BF80B400AF3F4BD3F8F2
:1006900088303E4A43F47003C2F888303B4B1B69F4
:1006A0003A4A43F010031361394B1B6803F00F0300
:1006B000062B07D8364B1B6823F00F03344A43F050
:1006C00007031360334B1B68324A43F00103136086
:1006D000304B00221A612F4B1A682E492E4B1340C3
:1006E0000B602B4B1B6803F00803002B07D0284B33
:1006F0001B6823F00F03264A43F007031360254BC2
:1007000000229A61234B0022DA61224B00221A62F6
:10071000204B224A9A621F4B214ADA621D4B214A22
:100720001A631C4B00225A631A4B1E4A9A63194BD8
:100730000022DA63174B1B4A1A64164B00225A64D4
:10074000144B1B68134A23F480231360114B0022BF
:100750001A66154B5B6A144A43F480435362134B89
:100760001A68134B1340B3F1005F02D2114B012200
:100770001A60114B43F2D2021A60044B4FF0006230
:100780009A6000BFBD465DF8047B704700ED00E055
:1007900000200052004402587FEDF6EA00020202F7
:1007A0000000FF0180020101C00000580010005C41
:1007B0000000FFFF088100510040005280B582B068
:1007C00000AF4FF6FF737B6000BF334B1B6803F431
:1007D0000043002B04D07B685A1E7A60002BF4DCA7
:1007E0007B68002B01DA00F0FBFA00F0E3FC00F07C
:1007F0005DF800F0E7F8284BD3F8E030264A43F0E4
:100800000073C2F8E030244BD3F8E03003F00073FB
:100810003B603B68002001F023F80021002001F03C
:1008200039F84FF6FF737B6000BF1B4B1B6803F466
:100830000043002B04D17B685A1E7A60002BF4DC45
:100840007B68002B01DA00F0CBFA00F059FA00F0D7
:100850000BFA00F0E3F800F02FF900F0BDF90F4BB0
:100860001B8801339AB20D4B1A800C4B1B881A4619
:100870000B490C4805F0B2FE0A48FFF731FD03466C
:100880009AB24FF47A730749074804F0C7FD4FF452
:100890007A7000F021FDE2E700440258B000002425
:1008A000506E0008080000247C01002480B59CB034
:1008B00000AF07F124034C220021184605F086FE04
:1008C0003B1D20220021184605F080FE042000F088
:1008D000F5FF00233B60384BDB6A374A23F0010306
:1008E000D362354BDB6A03F001033B60334B9B69FA
:1008F00023F44043314A43F4804393612F4B9B6977
:1009000003F440433B603B6800BF2C4B9B6903F4FE
:100910000053B3F5005FF8D1294B9B6A23F0030322
:10092000274A43F0020393620B237B624FF4803328
:10093000BB6201233B6340237B630123BB63022330
:10094000BB640223FB6402233B650C237B6502230B
:10095000BB650323FB6502233B660C237B660223F6
:10096000BB660023FB6607F12403184601F000F87C
:100970000346002B01D000F033FA3F237B600023B5
:10098000BB600023FB6000233B6100237B614023AD
:10099000BB614FF48063FB6100233B623B1D01217F
:1009A000184601F011FC0346002B01D000F018FAA4
:1009B00000BF7037BD4680BD000400580048025893
:1009C0000044025880B5B0B000AF3B46C0220021C1
:1009D000184605F0FBFD4FF400233B6002237B60CB
:1009E0000C23BB600423FB6002233B6102237B6179
:1009F000C023BB612023FB6100233B620023C7F8B7
:100A0000A4303B46184601F06BFF0346002B01D093
:100A100000F0E6F900BFC037BD4680BD80B58AB0A2
:100A200000AF3B4628220021184605F0CFFD204BA1
:100A3000204A1A601E4B00225A601D4B7F229A608A
:100A40001B4BFF22DA601A4B00221A61184B00225E
:100A50009A61174B0022DA61154B00225A61144843
:100A600003F0D0FA0346002B01D000F0B9F90123BE
:100A70003B600123BB600023FB6000233B6100233C
:100A80007B610023BB610023FB6100233B62802369
:100A90007B623B461946064803F0C4FB0346002B25
:100AA00001D000F09DF900BF2837BD4680BD00BFD2
:100AB000580100240040005880B596B000AF07F1FF
:100AC0004C0300221A605A609A6007F1300300223A
:100AD0001A605A609A60DA601A615A619A613B1D25
:100AE0002C220021184605F071FD394B394A1A6055
:100AF000374B00225A60364B00229A60344B4FF637
:100B0000FF72DA60324B00221A61314B00225A61C7
:100B10002F4B00229A612E4803F0BBFC0346002BAA
:100B200001D000F05DF90023FB6400233B65002346
:100B30007B6507F14C031946254804F013FB034677
:100B4000002B01D000F04CF900233B6300237B63B2
:100B50000023BB630023FB6300233B6400237B640F
:100B60000023BB6407F1300304221946184803F040
:100B700049FD0346002B01D000F032F900237B60D1
:100B80000023BB600023FB6000233B6100237B61EB
:100B90004FF40053BB610023FB6100233B624FF025
:100BA00000737B620023BB620023FB623B1D19467E
:100BB000074804F065FB0346002B01D000F010F954
:100BC000034800F0CDF900BF5837BD4680BD00BFD7
:100BD000C00000240004014080B584B000AF3B4653
:100BE00000221A605A609A60DA601D4B1D4A1A6032
:100BF0001B4B00225A601A4B00229A60184B4FF68A
:100C0000FF72DA60164B00221A61154B00229A61BE
:100C1000134803F0E7FB0346002B01D000F0E0F897
:100C20000F4803F08DFC0346002B01D000F0D8F8EC
:100C300000233B6001237B600023BB600023FB603B
:100C40003B4600221946064803F056FD0346002B9A
:100C500001D000F0C5F800BF1037BD4680BD00BF11
:100C60000C010024001C004080B500AF224B234A39
:100C70001A60214B4FF416525A601F4B00229A60A3
:100C80001D4B0022DA601C4B00221A611A4B0C2209
:100C90005A61194B00229A61174B0022DA61164BF8
:100CA00000221A62144B00225A62134B00229A62ED
:100CB000114804F063FB0346002B01D000F090F8CC
:100CC00000210D4805F08EFB0346002B01D000F0FB
:100CD00087F80021084805F0C3FB0346002B01D02C
:100CE00000F07EF8044805F044FB0346002B01D0D9
:100CF00000F076F800BF80BD7C010024007C00403D
:100D000080B58AB000AF07F1140300221A605A6060
:100D10009A60DA601A61304BD3F8E0302E4A43F023
:100D20000403C2F8E0302C4BD3F8E03003F00403A6
:100D30003B613B69284BD3F8E030274A43F001037D
:100D4000C2F8E030244BD3F8E03003F00103FB603D
:100D5000FB68214BD3F8E0301F4A43F08003C2F810
:100D6000E0301D4BD3F8E03003F08003BB60BB687C
:100D7000194BD3F8E030184A43F02003C2F8E030B2
:100D8000154BD3F8E03003F020037B607B68124BF7
:100D9000D3F8E030104A43F40073C2F8E0300E4B51
:100DA000D3F8E03003F400733B603B684FF480738A
:100DB0007B610223BB610023FB6100233B620023B4
:100DC0007B6207F114031946044800F099FB00BF49
:100DD0002837BD4680BD00BF0044025800000258BD
:100DE00080B400AF72B600BF00BFBD465DF8047BA3
:100DF0007047000080B483B000AF0A4BD3F8F430E2
:100E0000084A43F00203C2F8F430064BD3F8F4303A
:100E100003F002037B607B6800BF0C37BD465DF8C2
:100E2000047B70470044025880B5B2B000AF7860D0
:100E300007F10803C0220021184605F0C7FB7B68B4
:100E40001B680F4A934216D14FF48003BB604FF4E6
:100E50000073C7F8BC3007F10803184601F040FDE5
:100E60000346002B01D0FFF7BBFF064B1B6F054A63
:100E700043F40043136700BFC837BD4680BD00BFC1
:100E8000004000580044025880B485B000AF78603C
:100E90007B681B680B4A93420ED10B4BD3F8F030A2
:100EA000094A43F00203C2F8F030074BD3F8F030A0
:100EB00003F00203FB60FB6800BF1437BD465DF81A
:100EC000047B7047000401400044025880B58AB09A
:100ED00000AF786007F1140300221A605A609A602C
:100EE000DA601A617B681B681A4A93422ED11A4B4A
:100EF000D3F8E830184A43F08003C2F8E830164BC4
:100F0000D3F8E83003F080033B613B69124BD3F820
:100F1000E030114A43F02003C2F8E0300E4BD3F822
:100F2000E03003F02003FB60FB684FF480737B61CB
:100F30000223BB610023FB6100233B6209237B6228
:100F400007F114031946054800F0DAFA00BF283704
:100F5000BD4680BD001C00400044025800140258E9
:100F600080B588B000AF786007F10C0300221A60EA
:100F70005A609A60DA601A617B681B68124A934271
:100F80001ED1124BD3F8E030104A43F40073C2F87C
:100F9000E0300E4BD3F8E03003F40073BB60BB6865
:100FA000C023FB6002233B6100237B610023BB6104
:100FB0000323FB6107F10C031946054800F0A0FA72
:100FC00000BF2037BD4680BD0004014000440258E8
:100FD0000024025880B5BAB000AF786007F1D4039E
:100FE00000221A605A609A60DA601A6107F11403ED
:100FF000C0220021184605F0E9FA7B681B68254AE3
:10100000934242D102237B610023C7F88C3007F161
:101010001403184601F064FC0346002B01D0FFF7CF
:10102000DFFE1D4BD3F8E8301B4A43F00043C2F803
:10103000E830194BD3F8E83003F000433B613B69DB
:10104000154BD3F8E030144A43F40073C2F8E03093
:10105000114BD3F8E03003F40073FB60FB684FF4EE
:101060004073C7F8D4300223C7F8D8300023C7F83C
:10107000DC300023C7F8E0300823C7F8E43007F17C
:10108000D4031946054800F03BFA00BFE837BD46D7
:1010900080BD00BF007C004000440258002402587C
:1010A00080B400AFFEE780B400AFFEE780B400AFCD
:1010B000FEE780B400AFFEE780B400AFFEE780B487
:1010C00000AF00BFBD465DF8047B704780B400AF41
:1010D00000BFBD465DF8047B704780B400AF00BF21
:1010E000BD465DF8047B704780B500AF00F0D4F8D2
:1010F00000BF80BD80B586B000AF7860144A154B44
:10110000D31A7B617B693B61134B1B68002B02D1B7
:10111000114B124A1A60104B1A687B6813443A69E3
:101120009A4207D205F028FA03460C221A604FF0C3
:10113000FF3309E0084B1B68FB60074B1A687B68AC
:101140001344054A1360FB6818461837BD4680BD36
:101150000000082400040000B40000242002002441
:10116000DFF834D0FFF790FA0C480D490D4A002300
:1011700002E0D458C4500433C4188C42F9D30A4A4C
:101180000A4C002301E013600432A242FBD305F0B5
:10119000F9F9FFF713FB7047000008240000002452
:1011A00094000024D46E000894000024200200243F
:1011B000FEE7000080B582B000AF032000F06EF9BA
:1011C00001F0B8F90246154B9B691B0A03F00F03A7
:1011D0001349CB5C03F01F0322FA03F37B600F4B30
:1011E0009B6903F00F030E4AD35C03F01F037A6878
:1011F00022FA03F30B4A13600B4A7B68136000204A
:1012000000F014F80346002B01D0012302E0FFF7A1
:10121000F1FD002318460837BD4680BD0044025842
:10122000586E0008040000240000002480B582B03D
:1012300000AF7860154B1B78002B01D1012321E012
:10124000134B1A68114B1B7819464FF47A73B3FB92
:10125000F1F3B2FBF3F3184600F045F90346002B17
:1012600001D001230EE07B680F2B0AD80022796899
:101270004FF0FF3000F01DF9064A7B681360002331
:1012800000E0012318460837BD4680BD2C0000242D
:10129000000000242800002480B400AF064B1B7817
:1012A0001A46064B1B681344044A136000BFBD4630
:1012B0005DF8047B704700BF2C0000240C02002462
:1012C00080B400AF034B1B681846BD465DF8047B35
:1012D000704700BF0C02002480B584B000AF786076
:1012E000FFF7EEFFB8607B68FB60FB68B3F1FF3F80
:1012F00005D00A4B1B781A46FB681344FB6000BFFD
:10130000FFF7DEFF0246BB68D31AFA689A42F7D8A5
:1013100000BF00BF1037BD4680BD00BF2C000024B9
:1013200080B400AF034B1B681B0C1846BD465DF82C
:10133000047B70470010005C80B485B000AF78601B
:101340007B6803F00703FB600B4BDB68BB60BA688C
:101350004FF6FF031340BB60FB681A02BB681A43D9
:10136000064B1343BB60044ABB68D36000BF14370D
:10137000BD465DF8047B704700ED00E00000FA0513
:1013800080B400AF044BDB681B0A03F00703184668
:10139000BD465DF8047B704700ED00E080B483B08B
:1013A00000AF03463960FB80B7F90630002B0ADB3B
:1013B0003B68DAB20C49B7F906301201D2B20B44DD
:1013C00083F800230AE03B68DAB20849FB8803F09F
:1013D0000F03043B1201D2B20B441A7600BF0C3744
:1013E000BD465DF8047B704700E100E000ED00E0E1
:1013F00080B489B000AFF860B9607A60FB6803F030
:101400000703FB61FB69C3F10703042B28BF042317
:10141000BB61FB690433062B02D9FB69033B00E087
:1014200000237B614FF0FF32BB6902FA03F3DA431A
:10143000BB681A407B699A404FF0FF317B6901FA23
:1014400003F3D9437B680B40134318462437BD464A
:101450005DF8047B7047000080B582B000AF786013
:101460007B68013BB3F1807F01D301230FE00A4A7F
:101470007B68013B53600F214FF0FF30FFF78EFF79
:10148000054B00229A60044B07221A60002318467D
:101490000837BD4680BD00BF10E000E080B582B0D7
:1014A00000AF78607868FFF747FF00BF0837BD4698
:1014B00080BD80B586B000AF0346B9607A60FB811D
:1014C000FFF75EFF78617A68B9687869FFF790FF87
:1014D0000246B7F90E3011461846FFF75FFF00BF0E
:1014E0001837BD4680BD80B582B000AF786078689F
:1014F000FFF7B2FF034618460837BD4680BD00001F
:1015000080B489B000AF786039600023FB61894BFB
:101510007B6194E13B681A680121FB6901FA03F3DE
:1015200013403B613B69002B00F086813B685B68A0
:1015300003F00303012B05D03B685B6803F0030352
:10154000022B30D17B689B68BB61FB695B00032287
:1015500002FA03F3DB43BA691340BB613B68DA6804
:10156000FB695B0002FA03F3BA691343BB617B6852
:10157000BA699A607B685B68BB610122FB6902FA09
:1015800003F3DB43BA691340BB613B685B681B092B
:1015900003F00102FB6902FA03F3BA691343BB616A
:1015A0007B68BA695A603B685B6803F00303032BEE
:1015B00017D07B68DB68BB61FB695B00032202FA22
:1015C00003F3DB43BA691340BB613B689A68FB696C
:1015D0005B0002FA03F3BA691343BB617B68BA6923
:1015E000DA603B685B6803F00303022B23D1FB69DD
:1015F000DA087B68083253F82230BB61FB6903F0DC
:1016000007039B000F2202FA03F3DB43BA6913407E
:10161000BB613B681A69FB6903F007039B0002FA90
:1016200003F3BA691343BB61FB69DA087B680832CC
:10163000B96943F822107B681B68BB61FB695B00DA
:10164000032202FA03F3DB43BA691340BB613B6830
:101650005B6803F00302FB695B0002FA03F3BA69FB
:101660001343BB617B68BA691A603B685B6803F42B
:101670004033002B00F0E0802F4BD3F8F4302E4A9B
:1016800043F00203C2F8F4302B4BD3F8F43003F0EC
:101690000203FB60FB68294AFB699B08023352F88E
:1016A0002330BB61FB6903F003039B000F2202FAA6
:1016B00003F3DB43BA691340BB617B68204A934262
:1016C00052D07B681F4A934231D07B681E4A9342B6
:1016D0002BD07B681D4A934225D07B681C4A9342DD
:1016E0001FD07B681B4A934219D07B681A4A9342E9
:1016F00013D07B68194A93420DD07B68184A9342F5
:1017000007D07B68174A934201D109232DE00A23B1
:101710002BE0082329E0072327E0062325E0052303
:1017200023E0042321E003231FE002231DE0012323
:101730001BE000BF8000005800440258000400581D
:10174000000002580004025800080258000C025819
:10175000001002580014025800180258001C0258C9
:1017600000200258002402580023FA6902F0030204
:1017700092009340BA691343BB613849FB699B08E7
:101780000233BA6941F823204FF0B0431B68BB61B4
:101790003B69DB43BA691340BB613B685B6803F498
:1017A0008013002B03D0BA693B691343BB614FF030
:1017B000B042BB6913604FF0B0435B68BB613B69EB
:1017C000DB43BA691340BB613B685B6803F40013F9
:1017D000002B03D0BA693B691343BB614FF0B042A1
:1017E000BB6953607B695B68BB613B69DB43BA697A
:1017F0001340BB613B685B6803F40033002B03D0EC
:10180000BA693B691343BB617B69BA695A607B69FA
:101810001B68BB613B69DB43BA691340BB613B6832
:101820005B6803F48033002B03D0BA693B69134330
:10183000BB617B69BA691A60FB690133FB613B6874
:101840001A68FB6922FA03F3002B7FF463AE00BF32
:1018500000BF2437BD465DF8047B70470004005884
:1018600080B483B000AF7860084A7B68203352F8B8
:101870002330074A934201D1002300E00123184698
:101880000C37BD465DF8047B704700BF006402580A
:101890000003008080B483B000AF786039600649EF
:1018A0003B6843F440727B6841F8232000BF0C374B
:1018B000BD465DF8047B70470064025880B584B073
:1018C00000AF7860294BDB6803F00703062B0AD0D2
:1018D000264BDB6803F03F037A689A4201D001236C
:1018E00040E000233EE0214BDB6823F03F021F492C
:1018F0007B681343CB60FFF7E3FCF86009E0FFF778
:10190000DFFC0246FB68D31AB3F57A7F01D90123C5
:1019100028E0164B5B6803F40053B3F5005FEED18B
:101920007B681E2B08D07B682E2B05D07B681D2B77
:1019300002D07B682D2B14D1FFF7C2FCF86009E0C0
:10194000FFF7BEFC0246FB68D31AB3F57A7F01D9D4
:10195000012307E0054BDB6803F48033B3F5803FD8
:10196000EED1002318461037BD4680BD004802580E
:1019700080B58CB000AF78607B68002B02D101236A
:1019800000F01CBC7B681B6803F00103002B00F017
:1019900087809E4B1B6903F03803FB629B4B9B6A5D
:1019A000BB62FB6A102B07D0FB6A182B10D1BB6AF5
:1019B00003F00303022B0BD1944B1B6803F4003399
:1019C000002B6CD07B685B68002B68D10123F5E3AA
:1019D0007B685B68B3F5803F06D18C4B1B688B4AF4
:1019E00043F4803313602EE07B685B68002B0CD1DE
:1019F000864B1B68854A23F480331360834B1B6836
:101A0000824A23F4802313601DE07B685B68B3F592
:101A1000A02F0CD17D4B1B687C4A43F480231360BC
:101A20007A4B1B68794A43F4803313600BE0774BA1
:101A30001B68764A23F480331360744B1B68734A27
:101A400023F4802313607B685B68002B13D0FFF7BF
:101A500037FC786208E0FFF733FC02467B6AD31A52
:101A6000642B01D90323A9E3684B1B6803F40033FB
:101A7000002BF0D014E0FFF723FC786208E0FFF7BA
:101A80001FFC02467B6AD31A642B01D9032395E31A
:101A90005E4B1B6803F40033002BF0D100E000BF65
:101AA0007B681B6803F00203002B00F0CA80574BD1
:101AB0001B6903F038033B62544B9B6AFB613B6A32
:101AC000002B07D03B6A182B56D1FB6903F00303A8
:101AD000002B51D14D4B1B6803F00403002B05D0A4
:101AE0007B68DB68002B01D1012367E3474B1B6850
:101AF00023F019027B68DB68444913430B60FFF74E
:101B0000DFFB786208E0FFF7DBFB02467B6AD31A53
:101B1000022B01D9032351E33C4B1B6803F0040360
:101B2000002BF0D0FFF7FCFB034641F20302934287
:101B300017D87B681B69402B08D1344B5B6823F4B2
:101B40007C33324A43F4003353607AE02F4B5B68B6
:101B500023F47C327B681B691B032C4913434B60C5
:101B60006FE02A4B5B6823F0FE427B681B691B0613
:101B7000264913434B6064E07B68DB68002B47D049
:101B8000224B1B6823F019027B68DB681F49134353
:101B90000B60FFF795FB786208E0FFF791FB0246C8
:101BA0007B6AD31A022B01D9032307E3174B1B6867
:101BB00003F00403002BF0D0FFF7B2FB034641F221
:101BC0000302934217D87B681B69402B08D10F4B47
:101BD0005B6823F47C330D4A43F40033536030E0F8
:101BE0000A4B5B6823F47C327B681B691B03074943
:101BF00013434B6025E0054B5B6823F0FE427B6896
:101C00001B691B06014913434B601AE0004402584C
:101C10009E4B1B689D4A23F001031360FFF750FBA6
:101C2000786208E0FFF74CFB02467B6AD31A022B6E
:101C300001D90323C2E2954B1B6803F00403002B78
:101C4000F0D17B681B6803F01003002B00F0A98023
:101C50008E4B1B6903F03803BB618C4B9B6A7B6125
:101C6000BB69082B07D0BB69182B3AD17B6903F0FD
:101C70000303012B35D1854B1B6803F48073002BC4
:101C800005D07B68DB69802B01D0012396E2FFF74A
:101C900047FB034641F20302934217D87B681B6A55
:101CA000202B08D1794B5B6823F0F843774A43F047
:101CB0008043536075E0754B5B6823F0F8427B68A6
:101CC0001B6A9B06714913434B606AE06F4BDB68EC
:101CD00023F07C527B681B6A1B066C491343CB6064
:101CE0005FE07B68DB69002B42D0684B1B68674A6A
:101CF00043F080031360FFF7E3FA786208E0FFF730
:101D0000DFFA02467B6AD31A022B01D9032355E27C
:101D10005E4B1B6803F48073002BF0D0FFF700FBD1
:101D2000034641F20302934217D87B681B6A202BBB
:101D300008D1564B5B6823F0F843544A43F0804384
:101D400053602EE0514B5B6823F0F8427B681B6ABE
:101D50009B064E4913434B6023E04C4BDB6823F05A
:101D60007C527B681B6A1B0648491343CB6018E012
:101D7000464B1B68454A23F080031360FFF7A0FA27
:101D8000786208E0FFF79CFA02467B6AD31A022BBE
:101D900001D9032312E23D4B1B6803F48073002B2F
:101DA000F0D17B681B6803F00803002B36D07B68FA
:101DB0005B69002B19D0354B5B6F344A43F001034C
:101DC0005367FFF77DFA786208E0FFF779FA024679
:101DD0007B6AD31A022B01D90323EFE12B4B5B6FF4
:101DE00003F00203002BF0D018E0284B5B6F274A6A
:101DF00023F001035367FFF763FA786208E0FFF707
:101E00005FFA02467B6AD31A022B01D90323D5E17C
:101E10001E4B5B6F03F00203002BF0D17B681B6845
:101E200003F02003002B39D07B689B69002B19D06D
:101E3000164B1B68154A43F480531360FFF740FAB2
:101E4000786208E0FFF73CFA02467B6AD31A022B5D
:101E500001D90323B2E10D4B1B6803F40053002B9F
:101E6000F0D01BE0094B1B68084A23F48053136031
:101E7000FFF726FA78620BE0FFF722FA02467B6A48
:101E8000D31A022B04D9032398E100BF004402585F
:101E9000A34B1B6803F40053002BEDD17B681B6838
:101EA00003F00403002B00F081809E4B1B689D4AC9
:101EB00043F480731360FFF703FA786208E0FFF7DA
:101EC000FFF902467B6AD31A642B01D9032375E11B
:101ED000944B1B6803F48073002BF0D07B689B68E5
:101EE000012B06D18E4B1B6F8D4A43F00103136704
:101EF0002DE07B689B68002B0CD1894B1B6F884AB7
:101F000023F001031367864B1B6F854A23F00403FC
:101F100013671CE07B689B68052B0CD1804B1B6F03
:101F20007F4A43F0040313677D4B1B6F7C4A43F0E9
:101F3000010313670BE07A4B1B6F794A23F001030F
:101F40001367774B1B6F764A23F0040313677B6894
:101F50009B68002B15D0FFF7B3F978620AE0FFF712
:101F6000AFF902467B6AD31A41F28832934201D913
:101F7000032323E16A4B1B6F03F00203002BEED017
:101F800014E0FFF79DF978620AE0FFF799F902463D
:101F90007B6AD31A41F28832934201D903230DE1BF
:101FA0005F4B1B6F03F00203002BEED17B685B6A73
:101FB000002B00F002815A4B1B6903F03803182BE9
:101FC00000F0BD807B685B6A022B40F09580544B2B
:101FD0001B68534A23F080731360FFF771F978622E
:101FE00008E0FFF76DF902467B6AD31A022B01D98C
:101FF0000323E3E04A4B1B6803F00073002BF0D18E
:10200000474B9A6A484B13407A68916A7A68D26A59
:1020100012010A43424913438B627B681B6B013BED
:10202000C3F308027B685B6B013B5B029BB21A4304
:102030007B689B6B013B1B0403F4FE031A437B6824
:10204000DB6B013B1B0603F0FE43354913430B6377
:10205000334BDB6A324A23F00103D362304B5A6BB5
:10206000324B13407A68926CD2002D4913434B6374
:102070002B4BDB6A23F00C027B681B6C2849134353
:10208000CB62274BDB6A23F002027B685B6C24493E
:102090001343CB62224BDB6A214A43F48033D36281
:1020A0001F4BDB6A1E4A43F40033D3621C4BDB6ACE
:1020B0001B4A43F48023D362194BDB6A184A43F06E
:1020C0000103D362164B1B68154A43F080731360FB
:1020D000FFF7F6F8786208E0FFF7F2F802467B6A4D
:1020E000D31A022B01D9032368E00D4B1B6803F0C0
:1020F0000073002BF0D060E0094B1B68084A23F006
:1021000080731360FFF7DCF8786211E0FFF7D8F80E
:1021100002467B6AD31A022B0AD903234EE000BF82
:1021200000440258004802580CFCFFFF0700FFFF64
:10213000244B1B6803F00073002BE7D13DE0214BDB
:102140009B6A3B611F4B1B6BFB607B685B6A012BCF
:1021500031D03B6903F003027B689B6A9A422AD123
:102160003B691B0903F03F027B68DB6A9A4222D17C
:10217000FB68C3F308027B681B6B013B9A421AD1D0
:10218000FB685B0A03F07F027B685B6B013B9A4252
:1021900011D1FB681B0C03F07F027B689B6B013B3A
:1021A0009A4208D1FB681B0E03F07F027B68DB6B51
:1021B000013B9A4201D0012300E00023184630374A
:1021C000BD4680BD0044025880B586B000AF78603F
:1021D00039607B68002B01D101239CE18A4B1B688D
:1021E00003F00F033A689A4210D9874B1B6823F01B
:1021F0000F0285493B6813430B60834B1B6803F058
:102200000F033A689A4201D0012384E17B681B687E
:1022100003F00403002B10D07B681A697B4B9B6989
:1022200003F070039A4208D9784B9B6923F070023F
:102230007B681B69754913438B617B681B6803F0DE
:102240000803002B10D07B685A69704BDB6903F0E0
:1022500070039A4208D96D4BDB6923F070027B68EA
:102260005B696A491343CB617B681B6803F0100309
:10227000002B10D07B689A69644BDB6903F4E06340
:102280009A4208D9614BDB6923F4E0627B689B6961
:102290005E491343CB617B681B6803F02003002B6E
:1022A00010D07B68DA69594B1B6A03F070039A42BD
:1022B00008D9564B1B6A23F070027B68DB695349CF
:1022C00013430B627B681B6803F00203002B10D0E2
:1022D0007B68DA684D4B9B6903F00F039A4208D97B
:1022E0004A4B9B6923F00F027B68DB684749134325
:1022F0008B617B681B6803F00103002B55D0434BB7
:102300009B6923F470627B689B68404913438B612F
:102310007B685B68022B07D13C4B1B6803F40033DE
:10232000002B21D10123F6E07B685B68032B07D1EA
:10233000364B1B6803F00073002B15D10123EAE034
:102340007B685B68012B07D1304B1B6803F48073FB
:10235000002B09D10123DEE02C4B1B6803F00403A2
:10236000002B01D10123D6E0284B1B6923F0070283
:102370007B685B68254913430B61FEF7A1FF786119
:102380000AE0FEF79DFF02467B69D31A41F28832CC
:10239000934201D90323BEE01C4B1B6903F03802B2
:1023A0007B685B68DB009A42EBD17B681B6803F0BB
:1023B0000203002B10D07B68DA68144B9B6903F092
:1023C0000F039A4208D2114B9B6923F00F027B68DE
:1023D000DB680E4913438B610B4B1B6803F00F0343
:1023E0003A689A4214D2084B1B6823F00F02064940
:1023F0003B6813430B60044B1B6803F00F033A6800
:102400009A4205D0012386E0002000520044025881
:102410007B681B6803F00403002B10D07B681A69EB
:102420003F4B9B6903F070039A4208D23C4B9B6977
:1024300023F070027B681B69394913438B617B6809
:102440001B6803F00803002B10D07B685A69344BDB
:10245000DB6903F070039A4208D2314BDB6923F049
:1024600070027B685B692E491343CB617B681B68F4
:1024700003F01003002B10D07B689A69284BDB69AE
:1024800003F4E0639A4208D2254BDB6923F4E0624F
:102490007B689B6922491343CB617B681B6803F00F
:1024A0002003002B10D07B68DA691D4B1B6A03F0F8
:1024B00070039A4208D21A4B1B6A23F070027B68A1
:1024C000DB69174913430B6200F034F80246144BE2
:1024D0009B691B0A03F00F031249CB5C03F01F0337
:1024E00022FA03F33B610E4B9B6903F00F030D4A85
:1024F000D35C03F01F033A6922FA03F30A4A13601C
:102500000A4A3B6913600A4B1B681846FEF78EFEA9
:102510000346FB73FB7B18461837BD4680BD00BFE2
:1025200000440258586E00080400002400000024F3
:102530002800002480B489B000AFB34B1B6903F0BE
:102540003803182B00F2558101A252F823F000BF86
:10255000B5250008F3270008F3270008F327000833
:10256000F3270008F3270008F3270008F3270008E3
:10257000DB250008F3270008F3270008F3270008ED
:10258000F3270008F3270008F3270008F3270008C3
:10259000E1250008F3270008F3270008F3270008C7
:1025A000F3270008F3270008F3270008F3270008A3
:1025B000E7250008944B1B6803F02003002B09D08B
:1025C000914B1B68DB0803F00303904A22FA03F3E4
:1025D000BB6111E18D4BBB610EE18D4BBB610BE12A
:1025E0008C4BBB6108E1884B9B6A03F003037B6162
:1025F000854B9B6A1B0903F03F033B61824BDB6AFF
:1026000003F00103FB60804B5B6BDB08C3F30C033F
:10261000FA6802FB03F307EE903AF8EE677AC7ED2B
:10262000027A3B69002B00F0E1807B69022B00F00D
:1026300083807B69022B00F2A1807B69002B03D091
:102640007B69012B56D099E06F4B1B6803F0200388
:10265000002B2DD06C4B1B68DB0803F003036B4A87
:1026600022FA03F37B607B6807EE903AF8EE676A24
:102670003B6907EE903AF8EE677A86EEA77A624BEE
:102680001B6BC3F3080307EE903AF8EE676A97ED09
:10269000026ADFED615AC6EE257A76EEA77AF7EE8A
:1026A000006A77EEA67A67EE277AC7ED077A87E0A9
:1026B0003B6907EE903AF8EE677ADFED586A86EEEE
:1026C000A77A514B1B6BC3F3080307EE903AF8EE61
:1026D000676A97ED026ADFED505AC6EE257A76EE0C
:1026E000A77AF7EE006A77EEA67A67EE277AC7ED4B
:1026F000077A65E03B6907EE903AF8EE677ADFED1E
:10270000486A86EEA77A404B1B6BC3F3080307EEBB
:10271000903AF8EE676A97ED026ADFED3F5AC6EE2F
:10272000257A76EEA77AF7EE006A77EEA67A67EE5C
:10273000277AC7ED077A43E03B6907EE903AF8EE57
:10274000677ADFED386A86EEA77A2F4B1B6BC3F3EF
:10275000080307EE903AF8EE676A97ED026ADFED3C
:102760002E5AC6EE257A76EEA77AF7EE006A77EE55
:10277000A67A67EE277AC7ED077A21E03B6907EE74
:10278000903AF8EE677ADFED266A86EEA77A1E4B5E
:102790001B6BC3F3080307EE903AF8EE676A97EDF8
:1027A000026ADFED1D5AC6EE257A76EEA77AF7EEBD
:1027B000006A77EEA67A67EE277AC7ED077A00BF40
:1027C000114B1B6B5B0A03F07F0301333B603B68DB
:1027D00007EE903AB8EE677AD7ED076AC6EE877AC9
:1027E000FCEEE77A17EE903ABB6105E00023BB618F
:1027F00002E0074BBB6100BFBB6918462437BD46EA
:102800005DF8047B704700BF004402580090D0037D
:1028100000093D0040787D01000000460024744C12
:102820000024744A20BCBE4B80B582B000AFFFF7D5
:1028300081FE0246104B9B691B0A03F00F030F49F0
:10284000CB5C03F01F0322FA03F37B600A4B9B6906
:1028500003F00F03094AD35C03F01F037A6822FADE
:1028600003F3074A1360074A7B681360044B1B6835
:1028700018460837BD4680BD00440258586E00080F
:10288000040000240000002480B500AFFFF7CCFF57
:102890000246064BDB691B0903F007030449CB5CC6
:1028A00003F01F0322FA03F3184680BD00440258C8
:1028B000586E000880B500AFFFF7B6FF0246064B22
:1028C000DB691B0A03F007030449CB5C03F01F0319
:1028D00022FA03F3184680BD00440258586E0008DF
:1028E00080B586B000AF78600023FB750023BB7510
:1028F0007B681B6803F00063002B3FD07B689B6EF6
:10290000B3F5401F2AD0B3F5401F24D8B3F5001FFC
:1029100018D0B3F5001F1ED8002B03D0B3F5801FCD
:1029200007D018E0AB4BDB6AAA4A43F40033D3620A
:1029300015E07B6804330221184601F0FFF90346D5
:10294000FB750CE07B6824330221184601F0A8FADD
:102950000346FB7503E00123FB7500E000BFFB7D30
:10296000002B09D19B4B1B6D23F440127B689B6E9F
:10297000984913430B6501E0FB7DBB757B681B68C1
:1029800003F48073002B3DD07B689B6D042B26D80D
:1029900001A252F823F000BFAD290008BB290008AE
:1029A000CD290008E5290008E5290008894BDB6AE4
:1029B000884A43F40033D36215E07B680433002176
:1029C000184601F0BBF90346FB750CE07B68243325
:1029D0000021184601F064FA0346FB7503E0012369
:1029E000FB7500E000BFFB7D002B09D1794B1B6D0F
:1029F00023F007027B689B6D764913430B6501E06A
:102A0000FB7DBB757B681B6803F40073002B42D011
:102A10007B68DB6DB3F5807F2BD0B3F5807F25D845
:102A2000C02B28D0C02B21D8802B16D0802B1DD8AE
:102A3000002B02D0402B07D018E0664BDB6A654ABA
:102A400043F40033D36217E07B6804330021184657
:102A500001F074F90346FB750EE07B682433002116
:102A6000184601F01DFA0346FB7505E00123FB75CE
:102A700002E000BF00E000BFFB7D002B09D1554BF9
:102A80001B6D23F4E0727B68DB6D524913430B65C9
:102A900001E0FB7DBB757B681B6803F48063002B42
:102AA00049D07B68D3F8A830B3F5000F30D0B3F528
:102AB000000F2AD8B3F5C00F2CD0B3F5C00F24D81F
:102AC000B3F5800F18D0B3F5800F1ED8002B03D0BC
:102AD000B3F5001F07D018E03E4BDB6A3D4A43F4D4
:102AE0000033D36217E07B6804330021184601F0FD
:102AF00025F90346FB750EE07B6824330021184658
:102B000001F0CEF90346FB7505E00123FB7502E0F9
:102B100000BF00E000BFFB7D002B0AD12D4B9B6D59
:102B200023F460027B68D3F8A8302A4913438B65ED
:102B300001E0FB7DBB757B681B6803F40063002B21
:102B40004CD07B68D3F8AC30B3F1806F30D0B3F1A8
:102B5000806F2AD8B3F1407F2CD0B3F1407F24D8C6
:102B6000B3F1007F18D0B3F1007F1ED8002B03D043
:102B7000B3F1807F07D018E0164BDB6A154A43F4A7
:102B80000033D36217E07B6804330021184601F05C
:102B9000D5F80346FB750EE07B6824330021184608
:102BA00001F07EF90346FB7505E00123FB7502E0A9
:102BB00000BF00E000BFFB7D002B0DD1054B9B6DDE
:102BC00023F0E0627B68D3F8AC30024913438B6595
:102BD00004E000BF00440258FB7DBB757B681B68A6
:102BE00003F00073002B32D07B689B6C302B1CD021
:102BF000302B17D8202B0CD0202B13D8002B16D01D
:102C0000102B0FD1B14BDB6AB04A43F40033D362CF
:102C10000EE07B6804330221184601F08FF803466A
:102C2000FB7505E00123FB7502E000BF00E000BF7B
:102C3000FB7D002B09D1A54BDB6C23F030027B68B8
:102C40009B6CA2491343CB6401E0FB7DBB757B68A1
:102C50001B6803F48053002B47D07B681B6EB3F5D1
:102C6000804F30D0B3F5804F2AD8B3F5405F2CD0D9
:102C7000B3F5405F24D8B3F5005F18D0B3F5005F1B
:102C80001ED8002B03D0B3F5805F07D018E08F4B20
:102C9000DB6A8E4A43F40033D36217E07B68043367
:102CA0000021184601F04AF80346FB750EE07B68E8
:102CB00024330021184601F0F3F80346FB7505E0C4
:102CC0000123FB7502E000BF00E000BFFB7D002B8D
:102CD00009D17E4B1B6D23F4E0427B681B6E7B4960
:102CE00013430B6501E0FB7DBB757B681B6803F438
:102CF0000053002B49D07B685B6EB3F5A02F2ED01C
:102D0000B3F5A02F28D8B3F5802F2AD0B3F5802FA4
:102D100022D8B3F5403F26D0B3F5403F1CD8B3F5D9
:102D2000003F10D0B3F5003F16D8002B1DD0B3F5EF
:102D3000803F11D17B6804330121184600F0FEFF6B
:102D40000346FB7512E07B6824330121184601F02D
:102D5000A7F80346FB7509E00123FB7506E000BFF9
:102D600004E000BF02E000BF00E000BFFB7D002BDD
:102D700009D1564B1B6D23F4E0227B685B6E5349EF
:102D800013430B6501E0FB7DBB757B681B6803F497
:102D90008043002B4BD07B68D3F8B030B3F1A04F09
:102DA0002ED0B3F1A04F28D8B3F1804F2AD0B3F181
:102DB000804F22D8B3F1405F26D0B3F1405F1CD8DA
:102DC000B3F1005F10D0B3F1005F16D8002B1DD017
:102DD000B3F1805F11D17B6804330121184600F004
:102DE000ADFF0346FB7512E07B68243301211846D2
:102DF00001F056F80346FB7509E00123FB7506E078
:102E000000BF04E000BF02E000BF00E000BFFB7DA8
:102E1000002B0AD12D4B9B6D23F0E0427B68D3F849
:102E2000B0302A4913438B6501E0FB7DBB757B689D
:102E30001B6803F08063002B22D07B68DB6C002BC7
:102E40000ED0B3F5807F08D17B680433012118468A
:102E500000F074FF0346FB7503E00123FB7500E0FF
:102E600000BFFB7D002B09D1184BDB6C23F4807273
:102E70007B68DB6C15491343CB6401E0FB7DBB75BC
:102E80007B681B6803F40043002B31D07B681B6F09
:102E9000B3F1005F0ED0B3F1005F14D8002B17D050
:102EA000B3F1805F0FD1094BDB6A084A43F400336A
:102EB000D3620EE07B6804330121184600F03EFF28
:102EC0000346FB7505E00123FB7502E00044025850
:102ED00000BFFB7D002B09D1BC4B1B6D23F0405282
:102EE0007B681B6FB94913430B6501E0FB7DBB7524
:102EF0007B681B6803F08073002B32D07B685B6CAF
:102F0000032B1BD801A252F823F000BF432F000867
:102F10001D2F00082B2F0008432F0008AB4BDB6A46
:102F2000AA4A43F40033D3620CE07B6804330221E5
:102F3000184600F003FF0346FB7503E00123FB7511
:102F400000E000BFFB7D002B09D1A04BDB6C23F020
:102F500003027B685B6C9D491343CB6401E0FB7DFE
:102F6000BB757B681B6803F48003002B00F0868030
:102F7000974B1B68964A43F480731360FEF7A0F9E1
:102F8000386109E0FEF79CF902463B69D31A642BCD
:102F900002D90323FB7505E08D4B1B6803F4807396
:102FA000002BEFD0FB7D002B66D1884B1A6F7B681E
:102FB000D3F8B430534003F44073002B13D0834B49
:102FC0001B6F23F44073FB60804B1B6F7F4A43F4FD
:102FD000803313677D4B1B6F7C4A23F48033136768
:102FE0007A4AFB6813677B68D3F8B430B3F5807F07
:102FF00015D1FEF765F938610BE0FEF761F902467D
:103000003B69D31A41F28832934202D90323FB75FC
:1030100005E06E4B1B6F03F00203002BEDD0FB7D30
:10302000002B26D17B68D3F8B43003F44073B3F59A
:10303000407F0DD1654B1B6923F47C527B68D3F82C
:10304000B4301909634B0B40604913430B6105E031
:103050005E4B1B695D4A23F47C5313615B4B1A6F13
:103060007B68D3F8B430C3F30B03584913430B67A1
:1030700004E0FB7DBB7501E0FB7DBB757B681B68D5
:1030800003F00103002B7ED07B68DB6F282B67D811
:1030900001A252F823F000BF673100086131000837
:1030A00061310008613100086131000861310008B8
:1030B00061310008613100083D31000861310008CC
:1030C0006131000861310008613100086131000898
:1030D00061310008613100084F310008613100089A
:1030E0006131000861310008613100086131000878
:1030F0006131000861310008673100086131000862
:103100006131000861310008613100086131000857
:103110006131000861310008673100086131000841
:103120006131000861310008613100086131000837
:103130006131000861310008673100087B680433A1
:103140000121184600F0FAFD0346FB750CE07B6890
:1031500024330121184600F0A3FE0346FB7503E06B
:103160000123FB7500E000BFFB7D002B09D1174B4D
:103170005B6D23F038027B68DB6F144913434B65AA
:1031800001E0FB7DBB757B681B6803F00203002B2D
:103190003ED07B689B6F052B27D801A252F823F005
:1031A000F1310008B9310008D9310008F1310008C7
:1031B000F1310008F13100087B6804330121184621
:1031C00000F0BCFD0346FB7513E000BF004402584D
:1031D00000480258CFFFFF007B68243301211846C6
:1031E00000F05EFE0346FB7503E00123FB7500E083
:1031F00000BFFB7D002B09D19F4B5B6D23F00702C5
:103200007B689B6F9C4913434B6501E0FB7DBB755D
:103210007B681B6803F00403002B39D07B68D3F86C
:103220009430052B20D801A252F823F06F32000809
:1032300045320008573200086F3200086F3200082C
:103240006F3200087B6804330121184600F076FDD8
:103250000346FB750CE07B6824330121184600F01F
:103260001FFE0346FB7503E00123FB7500E000BF72
:10327000FB7D002B0AD1804B9B6D23F007027B68FE
:10328000D3F894307C4913438B6501E0FB7DBB751B
:103290007B681B6803F02003002B4BD07B68D3F8BE
:1032A0009030B3F1A04F2ED0B3F1A04F28D8B3F196
:1032B000804F2AD0B3F1804F22D8B3F1405F26D09F
:1032C000B3F1405F1CD8B3F1005F10D0B3F1005FE1
:1032D00016D8002B1DD0B3F1805F11D17B68043369
:1032E0000021184600F02AFD0346FB7512E07B68BA
:1032F00024330221184600F0D3FD0346FB7509E094
:103300000123FB7506E000BF04E000BF02E000BF40
:1033100000E000BFFB7D002B0AD1574B5B6D23F013
:10332000E0427B68D3F89030534913434B6501E08A
:10333000FB7DBB757B681B6803F04003002B4BD003
:103340007B68D3F89C30B3F5A05F2ED0B3F5A05FB7
:1033500028D8B3F5805F2AD0B3F5805F22D8B3F5C3
:10336000406F26D0B3F5406F1CD8B3F5006F10D076
:10337000B3F5006F16D8002B1DD0B3F5806F11D1B7
:103380007B6804330021184600F0D8FC0346FB7527
:1033900012E07B6824330221184600F081FD0346C9
:1033A000FB7509E00123FB7506E000BF04E000BFE8
:1033B00002E000BF00E000BFFB7D002B0AD12E4BD6
:1033C0009B6D23F4E0527B68D3F89C302A49134369
:1033D0008B6501E0FB7DBB757B681B6803F0800398
:1033E000002B4DD07B68D3F8A030B3F5204F2ED002
:1033F000B3F5204F28D8B3F5004F2AD0B3F5004FCE
:1034000022D8B3F5C04F26D0B3F5C04F1CD8B3F5C2
:10341000804F10D0B3F5804F16D8002B1DD0B3F5D8
:10342000005F11D17B6804330021184600F086FC50
:103430000346FB7512E07B6824330221184600F036
:103440002FFD0346FB7509E00123FB7506E000BF75
:1034500004E000BF02E000BF00E000BFFB7D002BE6
:103460000CD1054B9B6D23F460427B68D3F8A030F0
:10347000014913438B6503E000440258FB7DBB7593
:103480007B681B6803F00803002B1AD07B68D3F815
:103490008430B3F5805F0AD17B682433022118465B
:1034A00000F0FEFC0346002B01D00123BB758C4BC2
:1034B0005B6D23F440527B68D3F884308849134312
:1034C0004B657B681B6803F01003002B1AD07B68E8
:1034D000D3F89830B3F5807F0AD17B68243302217A
:1034E000184600F0DDFC0346002B01D00123BB751C
:1034F0007B4B9B6D23F440727B68D3F898307849FE
:1035000013438B657B681B6803F40023002B34D0C6
:103510007B68D3F8A430B3F5003F1DD0B3F5003F6E
:1035200017D8002B03D0B3F5803F09D011E07B689A
:1035300004330021184600F001FC0346FB750CE043
:103540007B6824330221184600F0AAFC0346FB7571
:1035500003E00123FB7500E000BFFB7D002B0AD1D7
:103560005F4B9B6D23F440327B68D3F8A4305C49F9
:1035700013438B6501E0FB7DBB757B681B6803F41F
:103580008023002B33D07B68D3F88830B3F5401FFD
:103590001CD0B3F5401F16D8B3F5801F03D0B3F588
:1035A000001F07D00FE04E4BDB6A4D4A43F4003357
:1035B000D3620CE07B6824330121184600F070FCD4
:1035C0000346FB7503E00123FB7500E000BFFB7DB4
:1035D000002B0AD1424B5B6D23F440127B68D3F879
:1035E00088303F4913434B6501E0FB7DBB757B6829
:1035F0001B6803F48033002B29D07B681B6D002BE4
:1036000003D0B3F5803F07D00FE0354BDB6A344A77
:1036100043F40033D3620BE07B6804330221184685
:1036200000F08CFB0346FB7502E00123FB7500BF35
:10363000FB7D002B09D12A4BDB6C23F480327B68A5
:103640001B6D27491343CB6401E0FB7DBB757B6891
:103650001B6803F00053002B0AD07B68243302213F
:10366000184600F01DFC0346002B01D00123BB755A
:103670007B681B6803F40033002B35D07B68D3F8DC
:103680008030B3F5407F17D0B3F5407F11D8B3F544
:10369000007F13D0B3F5007F0BD8002B10D0B3F50B
:1036A000807F06D10E4BDB6A0D4A43F40033D362B0
:1036B00007E00123FB7504E000BF02E000BF00E06B
:1036C00000BFFB7D002B0DD1054B5B6D23F44072D9
:1036D0007B68D3F88030024913434B6504E000BF98
:1036E00000440258FB7DBB757B681B6803F48013A4
:1036F000002B08D0314B1B6D23F000427B685B6FC1
:103700002E4913430B657B681B6803F08053002B25
:1037100009D02A4B1B6923F480427B68D3F8B83068
:10372000264913430B617B681B6803F40013002BCD
:1037300008D0224B1B6D23F080727B68DB6E1F4923
:1037400013430B657B681B6803F08043002B0DD08F
:103750001A4B1B69194A23F400431361174B1A696A
:103760007B68D3F8BC30154913430B617B681B6839
:10377000002B08DA114BDB6C23F040527B685B6D49
:103780000E491343CB647B681B6803F40003002BD2
:1037900009D00A4B5B6D23F440027B68D3F88C3070
:1037A000064913434B65BB7D002B01D1002300E08C
:1037B000012318461837BD4680BD00BF004402589B
:1037C00080B500AFFFF730F80246064B1B6A1B09B5
:1037D00003F007030449CB5C03F01F0322FA03F351
:1037E000184680BD00440258586E000880B489B065
:1037F00000AF7860A14B9B6A03F00303BB619F4B52
:103800009B6A1B0B03F03F037B619C4BDB6A1B092C
:1038100003F001033B61994BDB6BDB08C3F30C0343
:103820003A6902FB03F307EE903AF8EE677AC7EDC8
:10383000037A7B69002B00F01181BB69022B00F039
:103840008380BB69022B00F2A180BB69002B03D0EF
:10385000BB69012B56D099E0884B1B6803F020030D
:10386000002B2DD0854B1B68DB0803F00303844A33
:1038700022FA03F3BB60BB6807EE903AF8EE676A82
:103880007B6907EE903AF8EE677A86EEA77A7B4B73
:103890009B6BC3F3080307EE903AF8EE676A97ED67
:1038A000036ADFED785AC6EE257A76EEA77AF7EE50
:1038B000006A77EEA67A67EE277AC7ED077A87E087
:1038C0007B6907EE903AF8EE677ADFED6F6A86EE75
:1038D000A77A6A4B9B6BC3F3080307EE903AF8EEA6
:1038E000676A97ED036ADFED675AC6EE257A76EED2
:1038F000A77AF7EE006A77EEA67A67EE277AC7ED29
:10390000077A65E07B6907EE903AF8EE677ADFEDBB
:103910005F6A86EEA77A594B9B6BC3F3080307EEE9
:10392000903AF8EE676A97ED036ADFED565AC6EEF5
:10393000257A76EEA77AF7EE006A77EEA67A67EE3A
:10394000277AC7ED077A43E07B6907EE903AF8EEF5
:10395000677ADFED4F6A86EEA77A484B9B6BC3F31D
:10396000080307EE903AF8EE676A97ED036ADFED19
:10397000455AC6EE257A76EEA77AF7EE006A77EE1C
:10398000A67A67EE277AC7ED077A21E07B6907EE12
:10399000903AF8EE677ADFED3D6A86EEA77A374B0C
:1039A0009B6BC3F3080307EE903AF8EE676A97ED56
:1039B000036ADFED345AC6EE257A76EEA77AF7EE83
:1039C000006A77EEA67A67EE277AC7ED077A00BF1E
:1039D0002A4B9B6B5B0A03F07F0307EE903AF8EEED
:1039E000677AB7EE007A37EE877AD7ED076AC6EEC8
:1039F000877AFCEEE77A17EE902A7B681A601F4BF5
:103A00009B6B1B0C03F07F0307EE903AF8EE677A8E
:103A1000B7EE007A37EE877AD7ED076AC6EE877A77
:103A2000FCEEE77A17EE902A7B685A60134B9B6B8B
:103A30001B0E03F07F0307EE903AF8EE677AB7EEBD
:103A4000007A37EE877AD7ED076AC6EE877AFCEE02
:103A5000E77A17EE902A7B689A6008E07B6800227C
:103A60001A607B6800225A607B6800229A6000BF5F
:103A70002437BD465DF8047B704700BF0044025800
:103A80000090D003000000460024744C0024744AC7
:103A900020BCBE4B80B489B000AF7860A14B9B6A5C
:103AA00003F00303BB619F4B9B6A1B0D03F03F03B5
:103AB0007B619C4BDB6A1B0A03F001033B61994B62
:103AC0005B6CDB08C3F30C033A6902FB03F307EEFC
:103AD000903AF8EE677AC7ED037A7B69002B00F025
:103AE0001181BB69022B00F08380BB69022B00F2BD
:103AF000A180BB69002B03D0BB69012B56D099E094
:103B0000884B1B6803F02003002B2DD0854B1B68CE
:103B1000DB0803F00303844A22FA03F3BB60BB68AB
:103B200007EE903AF8EE676A7B6907EE903AF8EE96
:103B3000677A86EEA77A7B4B1B6CC3F3080307EE0C
:103B4000903AF8EE676A97ED036ADFED785AC6EEB1
:103B5000257A76EEA77AF7EE006A77EEA67A67EE18
:103B6000277AC7ED077A87E07B6907EE903AF8EE8F
:103B7000677ADFED6F6A86EEA77A6A4B1B6CC3F338
:103B8000080307EE903AF8EE676A97ED036ADFEDF7
:103B9000675AC6EE257A76EEA77AF7EE006A77EED8
:103BA000A67A67EE277AC7ED077A65E07B6907EEAC
:103BB000903AF8EE677ADFED5F6A86EEA77A594BA6
:103BC0001B6CC3F3080307EE903AF8EE676A97EDB3
:103BD000036ADFED565AC6EE257A76EEA77AF7EE3F
:103BE000006A77EEA67A67EE277AC7ED077A43E098
:103BF0007B6907EE903AF8EE677ADFED4F6A86EE62
:103C0000A77A484B1B6CC3F3080307EE903AF8EE13
:103C1000676A97ED036ADFED455AC6EE257A76EEC0
:103C2000A77AF7EE006A77EEA67A67EE277AC7EDF5
:103C3000077A21E07B6907EE903AF8EE677ADFEDCC
:103C40003D6A86EEA77A374B1B6CC3F3080307EE79
:103C5000903AF8EE676A97ED036ADFED345AC6EEE4
:103C6000257A76EEA77AF7EE006A77EEA67A67EE07
:103C7000277AC7ED077A00BF2A4B1B6C5B0A03F05B
:103C80007F0307EE903AF8EE677AB7EE007A37EEE8
:103C9000877AD7ED076AC6EE877AFCEEE77A17EEE9
:103CA000902A7B681A601F4B1B6C1B0C03F07F0370
:103CB00007EE903AF8EE677AB7EE007A37EE877A39
:103CC000D7ED076AC6EE877AFCEEE77A17EE902A00
:103CD0007B685A60134B1B6C1B0E03F07F0307EECF
:103CE000903AF8EE677AB7EE007A37EE877AD7ED3A
:103CF000076AC6EE877AFCEEE77A17EE902A7B68B1
:103D00009A6008E07B6800221A607B6800225A6093
:103D10007B6800229A6000BF2437BD465DF8047BB3
:103D2000704700BF004402580090D00300000046D6
:103D30000024744C0024744A20BCBE4B80B584B06F
:103D400000AF786039600023FB73534B9B6A03F02C
:103D50000303032B01D1012399E04F4B1B684E4A0B
:103D600023F080631360FDF7ABFAB86008E0FDF75D
:103D7000A7FA0246BB68D31A022B01D9032386E0B7
:103D8000454B1B6803F00063002BF0D1424B9B6A4C
:103D900023F47C327B681B681B033F4913438B620F
:103DA0007B685B68013BC3F308027B689B68013B4F
:103DB0005B029BB21A437B68DB68013B1B0403F484
:103DC000FE031A437B681B69013B1B0603F0FE439D
:103DD000314913438B63304BDB6A23F0C0027B68AD
:103DE0005B692D491343CB622B4BDB6A23F0200226
:103DF0007B689B6928491343CB62274BDB6A264AC1
:103E000023F01003D362244BDA6B244B13407A68FF
:103E1000D269D20020491343CB631F4BDB6A1E4A91
:103E200043F01003D3623B68002B06D11A4BDB6AC8
:103E3000194A43F40023D3620FE03B68012B06D1FB
:103E4000154BDB6A144A43F48013D36205E0124B2E
:103E5000DB6A114A43F40013D3620F4B1B680E4A0E
:103E600043F080631360FDF72BFAB86008E0FDF7BC
:103E700027FA0246BB68D31A022B01D9032306E0B6
:103E8000054B1B6803F00063002BF0D0FB7B18464A
:103E90001037BD4680BD00BF004402580700FFFF39
:103EA00080B584B000AF786039600023FB73534B5A
:103EB0009B6A03F00303032B01D1012399E04F4BCD
:103EC0001B684E4A23F080531360FDF7F9F9B86080
:103ED00008E0FDF7F5F90246BB68D31A022B01D9B9
:103EE000032386E0454B1B6803F00053002BF0D101
:103EF000424B9B6A23F07C727B681B681B053F4921
:103F000013438B627B685B68013BC3F308027B68E9
:103F10009B68013B5B029BB21A437B68DB68013BF9
:103F20001B0403F4FE031A437B681B69013B1B0659
:103F300003F0FE43314913430B64304BDB6A23F437
:103F400040627B685B692D491343CB622B4BDB6A74
:103F500023F400727B689B6928491343CB62274B8B
:103F6000DB6A264A23F48073D362244B5A6C244BB9
:103F700013407A68D269D200204913434B641F4B27
:103F8000DB6A1E4A43F48073D3623B68002B06D180
:103F90001A4BDB6A194A43F48003D3620FE03B6893
:103FA000012B06D1154BDB6A144A43F40003D3629C
:103FB00005E0124BDB6A114A43F08073D3620F4B6A
:103FC0001B680E4A43F080531360FDF779F9B8601F
:103FD00008E0FDF775F90246BB68D31A022B01D938
:103FE000032306E0054B1B6803F00053002BF0D0C1
:103FF000FB7B18461037BD4680BD00BF0044025809
:104000000700FFFF80B584B000AF78600123FB7329
:104010007B68002B67D07B6893F82130DBB2002BE4
:1040200006D17B68002283F820207868FCF7FCFE2C
:104030007B68022283F821207B681B68CA225A62AF
:104040007B681B6853225A62786800F079F803464F
:10405000FB73FB7B002B3BD17B681B6899687B68FB
:104060001A68234B0B4093607B681B6899687B68D8
:104070005A687B681B691A437B689B691A437B6893
:104080001B680A439A607B689B6819047B68DA683E
:104090007B681B680A431A61786800F085F803465C
:1040A000FB73FB7B002B13D17B681B68DA6C7B688E
:1040B0001B6822F00302DA647B681B68D96C7B689A
:1040C000DA697B685B691A437B681B680A43DA64B8
:1040D0007B681B68FF225A62FB7B002B03D17B6845
:1040E000012283F82120FB7B18461037BD4680BD96
:1040F000BFFF8FFF80B584B000AF78607B681B681E
:10410000DA687B681B6822F0A002DA60FDF7D8F855
:10411000F86009E0FDF7D4F80246FB68D31AB3F55E
:104120007A7F01D9032307E07B681B68DB6803F013
:104130002003002BEED0002318461037BD4680BD6B
:1041400080B584B000AF78600023FB737B681B6888
:10415000DB6803F04003002B20D17B681B684FF025
:10416000FF32DA60FDF7ACF8B8600DE0FDF7A8F8B3
:104170000246BB68D31AB3F57A7F05D90323FB73D4
:104180007B68032283F821207B681B68DB6803F0CF
:104190004003002B02D1FB7B032BE7D1FB7B1846AE
:1041A0001037BD4680BD000080B584B000AF786098
:1041B0000023FB731A4BDB68194A23F04003D360DA
:1041C000174B9B6803F02003002B0CD17868FFF796
:1041D00091FF0346002B1ED07B68032283F8212029
:1041E0000323FB7317E00E4B9B680D4A23F020035B
:1041F00093607868FFF77EFF0346002B05D07B684D
:10420000032283F821200323FB73054B9B68044A98
:1042100043F020039360FB7B18461037BD4680BDFA
:104220000040005880B485B000AF786039607B688A
:1042300093F82030012B01D10223CAE07B680122D0
:1042400083F820207B68022283F821207B681B688A
:104250001B6CFB603B681B68FA681343FB603B68A0
:104260009B68082B03D03B689B68022B06D13B68F8
:104270001B685B00FA681343FB6006E03B681B6841
:104280005B00DB43FA681340FB603B68DB68002B94
:104290001ED03B681B6803F00103002B03D0FB68B2
:1042A00043F40033FB603B681B6803F00803002BFA
:1042B00003D0FB6843F48013FB603B681B6803F08A
:1042C0002003002B22D0FB6843F40003FB601DE0B9
:1042D0003B681B6803F00103002B03D0FB6823F449
:1042E0000033FB603B681B6803F00803002B03D01E
:1042F000FB6823F48013FB603B681B6803F020031A
:10430000002B03D0FB6823F40003FB603B681B69B0
:10431000002B1ED03B681B6803F00103002B03D069
:10432000FB6843F48023FB603B681B6803F00803D1
:10433000002B03D0FB6843F40013FB603B681B6851
:1043400003F02003002B22D0FB6843F08073FB6056
:104350001DE03B681B6803F00103002B03D0FB68E2
:1043600023F48023FB603B681B6803F00803002BE9
:1043700003D0FB6823F40013FB603B681B6803F069
:104380002003002B03D0FB6823F08073FB60FA68E6
:10439000134B1340FB603B685A693B689B691A43A7
:1043A0003B68DB691A433B681B6A1A433B685B6ADC
:1043B0001343FA681343FB607B681B68FA681A644E
:1043C0007B68012283F821207B68002283F820206B
:1043D000002318461437BD465DF8047B704700BFC4
:1043E0007F00FFFF80B582B000AF78607B68002B54
:1043F00001D1012349E07B6893F83D30DBB2002B0B
:1044000006D17B68002283F83C207868FCF75EFDCB
:104410007B68022283F83D207B681A687B6804333E
:104420001946104600F004FA7B68012283F8482000
:104430007B68012283F83E207B68012283F83F20BD
:104440007B68012283F840207B68012283F84120A9
:104450007B68012283F842207B68012283F8432095
:104460007B68012283F844207B68012283F8452081
:104470007B68012283F846207B68012283F847206D
:104480007B68012283F83D20002318460837BD468B
:1044900080BD80B582B000AF78607B68002B01D111
:1044A000012349E07B6893F83D30DBB2002B06D155
:1044B0007B68002283F83C207868FCF7E5FC7B6889
:1044C000022283F83D207B681A687B680433194612
:1044D000104600F0ADF97B68012283F848207B6824
:1044E000012283F83E207B68012283F83F207B680D
:1044F000012283F840207B68012283F841207B68F9
:10450000012283F842207B68012283F843207B68E4
:10451000012283F844207B68012283F845207B68D0
:10452000012283F846207B68012283F847207B68BC
:10453000012283F83D20002318460837BD4680BD80
:1045400080B582B000AF78607B68002B01D1012379
:1045500049E07B6893F83D30DBB2002B06D17B68E5
:10456000002283F83C20786800F041F87B68022242
:1045700083F83D207B681A687B680433194610462F
:1045800000F056F97B68012283F848207B680122FD
:1045900083F83E207B68012283F83F207B6801225C
:1045A00083F840207B68012283F841207B68012248
:1045B00083F842207B68012283F843207B68012234
:1045C00083F844207B68012283F845207B68012220
:1045D00083F846207B68012283F847207B6801220C
:1045E00083F83D20002318460837BD4680BD80B4BF
:1045F00083B000AF786000BF0C37BD465DF8047B28
:104600007047000080B586B000AFF860B9607A608E
:104610000023FB75FB6893F83C30012B01D102238A
:1046200066E0FB68012283F83C207B68142B57D896
:1046300001A252F823F000BF8D460008E1460008B1
:10464000E1460008E14600089B460008E1460008F4
:10465000E1460008E1460008A9460008E1460008D6
:10466000E1460008E1460008B7460008E1460008B8
:10467000E1460008E1460008C5460008E14600089A
:10468000E1460008E1460008D3460008FB681B68C5
:10469000B968184600F066F925E0FB681B68B96840
:1046A000184600F0EFF91EE0FB681B68B968184671
:1046B00000F072FA17E0FB681B68B968184600F052
:1046C000F3FA10E0FB681B68B968184600F056FB67
:1046D00009E0FB681B68B968184600F0B3FB02E00C
:1046E0000123FB7500BFFB68002283F83C20FB7DA3
:1046F00018461837BD4680BD80B586B000AFF8605B
:10470000B9607A600023FB75FB6893F83C30012B9D
:1047100001D1022388E0FB68012283F83C207B68FA
:10472000002B1BD1FB681868BB681968BB685A6806
:10473000BB68DB6800F0ECFBFB681B689A69FB68F0
:104740001B6822F00C029A61FB681B689969BB68C0
:104750009A68FB681B680A439A6160E07B68042BD7
:104760001CD1FB681868BB681968BB685A68BB68CD
:10477000DB6800F041FCFB681B689A69FB681B68FA
:1047800022F440629A61FB681B689969BB689B6868
:104790001A02FB681B680A439A6140E07B68082B99
:1047A0001BD1FB681868BB681968BB685A68BB688E
:1047B000DB6800F05EFCFB681B68DA69FB681B685D
:1047C00022F00C02DA61FB681B68D969BB689A6841
:1047D000FB681B680A43DA6121E07B680C2B1CD163
:1047E000FB681868BB681968BB685A68BB68DB68F7
:1047F00000F07BFCFB681B68DA69FB681B6822F42D
:104800004062DA61FB681B68D969BB689B681A0261
:10481000FB681B680A43DA6101E00123FB75FB6852
:10482000002283F83C20FB7D18461837BD4680BD2A
:1048300080B485B000AF786039607B681B68FB602E
:104840007B68404A934213D07B68B3F1804F0FD00E
:104850007B683D4A93420BD07B683C4A934207D029
:104860007B683B4A934203D07B683A4A934208D123
:10487000FB6823F07003FB603B685B68FA681343D6
:10488000FB607B682F4A93421FD07B68B3F1804F57
:104890001BD07B682C4A934217D07B682B4A9342EB
:1048A00013D07B682A4A93420FD07B68294A9342EF
:1048B0000BD07B68284A934207D07B68274A9342F3
:1048C00003D07B68264A934208D1FB6823F44073E7
:1048D000FB603B68DB68FA681343FB60FB6823F00E
:1048E00080023B685B691343FB607B68FA681A606F
:1048F0003B689A687B68DA623B681A687B689A62F0
:104900007B68104A93420FD07B68124A93420BD0C7
:104910007B68114A934207D07B68104A934203D0C8
:104920007B680F4A934203D13B681A697B681A631C
:104930007B6801225A6100BF1437BD465DF8047BD5
:10494000704700BF00000140000400400008004024
:10495000000C0040000401400040014000440140C0
:104960000048014080B487B000AF786039607B6850
:104970001B6A23F001027B681A627B681B6A7B61F9
:104980007B685B683B617B689B69FB60FA68374BBF
:104990001340FB60FB6823F00303FB603B681B686C
:1049A000FA681343FB607B6923F002037B613B6879
:1049B0009B687A6913437B617B682D4A93420FD0D1
:1049C0007B682C4A93420BD07B682B4A934207D0DA
:1049D0007B682A4A934203D07B68294A93420CD1D0
:1049E0007B6923F008037B613B68DB687A691343CA
:1049F0007B617B6923F004037B617B681C4A9342E3
:104A00000FD07B681B4A93420BD07B681A4A9342B3
:104A100007D07B68194A934203D07B68184A9342B7
:104A200011D13B6923F480733B613B6923F400732C
:104A30003B613B685B693A6913433B613B689B6937
:104A40003A6913433B617B683A695A607B68FA684C
:104A50009A613B685A687B685A637B687A691A6214
:104A600000BF1C37BD465DF8047B70478FFFFEFF1B
:104A700000000140000401400040014000440140AA
:104A80000048014080B487B000AF786039607B682F
:104A90001B6A23F010027B681A627B681B6A7B61C9
:104AA0007B685B683B617B689B69FB60FA68344BA1
:104AB0001340FB60FB6823F44073FB603B681B689A
:104AC0001B02FA681343FB607B6923F020037B61C0
:104AD0003B689B681B017A6913437B617B68294AA9
:104AE000934203D07B68284A93420DD17B6923F01F
:104AF00080037B613B68DB681B017A6913437B6140
:104B00007B6923F040037B617B681E4A93420FD090
:104B10007B681D4A93420BD07B681C4A934207D0A6
:104B20007B681B4A934203D07B681A4A934213D195
:104B30003B6923F480633B613B6923F400633B6181
:104B40003B685B699B003A6913433B613B689B6927
:104B50009B003A6913433B617B683A695A607B6802
:104B6000FA689A613B685A687B689A637B687A69DD
:104B70001A6200BF1C37BD465DF8047B704700BF5A
:104B8000FF8FFFFE00000140000401400040014093
:104B9000004401400048014080B487B000AF786015
:104BA00039607B681B6A23F480727B681A627B68B9
:104BB0001B6A7B617B685B683B617B68DB69FB60D0
:104BC000FA68334B1340FB60FB6823F00303FB6080
:104BD0003B681B68FA681343FB607B6923F400732E
:104BE0007B613B689B681B027A6913437B617B682E
:104BF000284A934203D07B68274A93420DD17B69B0
:104C000023F400637B613B68DB681B027A69134312
:104C10007B617B6923F480637B617B681D4A9342DF
:104C20000FD07B681C4A93420BD07B681B4A93428F
:104C300007D07B681A4A934203D07B68194A934293
:104C400013D13B6923F480533B613B6923F4005348
:104C50003B613B685B691B013A6913433B613B68FD
:104C60009B691B013A6913433B617B683A695A604F
:104C70007B68FA68DA613B685A687B68DA637B684C
:104C80007A691A6200BF1C37BD465DF8047B704725
:104C90008FFFFEFF00000140000401400040014082
:104CA000004401400048014080B487B000AF786004
:104CB00039607B681B6A23F480527B681A627B68C8
:104CC0001B6A3B617B685B687B617B68DB69FB60BF
:104CD000FA68244B1340FB60FB6823F44073FB60CD
:104CE0003B681B681B02FA681343FB603B6923F4B3
:104CF00000533B613B689B681B033A6913433B616C
:104D00007B68194A93420FD07B68184A93420BD0B4
:104D10007B68174A934207D07B68164A934203D0B8
:104D20007B68154A934209D17B6923F480437B61F8
:104D30003B685B699B017A6913437B617B687A6995
:104D40005A607B68FA68DA613B685A687B681A6463
:104D50007B683A691A6200BF1C37BD465DF8047B68
:104D6000704700BFFF8FFFFE0000014000040140BC
:104D700000400140004401400048014080B487B039
:104D800000AF786039607B681B6A23F480327B68EF
:104D90001A627B681B6A3B617B685B687B617B682E
:104DA0005B6DFB60FA68214B1340FB603B681B683E
:104DB000FA681343FB603B6923F400333B613B68B3
:104DC0009B681B043A6913433B617B68184A934212
:104DD0000FD07B68174A93420BD07B68164A9342E8
:104DE00007D07B68154A934203D07B68144A9342EC
:104DF00009D17B6923F480337B613B685B691B02CB
:104E00007A6913437B617B687A695A607B68FA68C8
:104E10005A653B685A687B689A657B683A691A628A
:104E200000BF1C37BD465DF8047B70478FFFFEFF57
:104E300000000140000401400040014000440140E6
:104E40000048014080B487B000AF786039607B686B
:104E50001B6A23F480127B681A627B681B6A3B61C1
:104E60007B685B687B617B685B6DFB60FA68224BEB
:104E70001340FB603B681B681B02FA681343FB602E
:104E80003B6923F400133B613B689B681B053A694F
:104E900013433B617B68194A93420FD07B68184AE1
:104EA00093420BD07B68174A934207D07B68164A1F
:104EB000934203D07B68154A934209D17B6923F45E
:104EC00080237B613B685B699B027A6913437B614A
:104ED0007B687A695A607B68FA685A653B685A68E9
:104EE0007B68DA657B683A691A6200BF1C37BD4689
:104EF0005DF8047B704700BFFF8FFFFE000001409C
:104F000000040140004001400044014000480140CD
:104F100080B487B000AFF860B9607A603B60FB682E
:104F20001B6A23F00102FB681A62FB689B697B61C4
:104F3000FB681B6A3B61FB68284A93421BD0FB68F5
:104F4000B3F1804F17D0FB68254A934213D0FB681A
:104F5000244A93420FD0FB68234A93420BD0FB684C
:104F6000224A934207D0FB68214A934203D0FB6850
:104F7000204A934201D1012300E00023002B08D0F6
:104F80007B6923F003037B617A697B6813437B6150
:104F900003E07B6943F001037B617B6923F0F0034D
:104FA0007B613B681B01DBB27A6913437B613B6920
:104FB00023F00A033B61BB6803F00A033A69134319
:104FC0003B61FB687A699A61FB683A691A6200BFC3
:104FD0001C37BD465DF8047B704700BF00000140F0
:104FE0000004004000080040000C004000040140A4
:104FF000001800400040014080B487B000AFF86066
:10500000B9607A603B60FB681B6A23F01002FB68A2
:105010001A62FB689B697B61FB681B6A3B617B6969
:1050200023F440737B617B681B027A6913437B61C5
:105030007B6923F470437B613B681B039BB27A69F5
:1050400013437B613B6923F0A0033B61BB681B01F9
:1050500003F0A0033A6913433B61FB687A699A61E4
:10506000FB683A691A6200BF1C37BD465DF8047BD5
:10507000704780B487B000AFF860B9607A603B6079
:10508000FB681B6A23F48072FB681A62FB68DB69A9
:105090007B61FB681B6A3B617B6923F003037B61D7
:1050A0007A697B6813437B617B6923F0F0037B6142
:1050B0003B681B01DBB27A6913437B613B6923F4D4
:1050C00020633B61BB681B0203F420633A6913430E
:1050D0003B61FB687A69DA61FB683A691A6200BF72
:1050E0001C37BD465DF8047B704780B487B000AFC5
:1050F000F860B9607A603B60FB681B6A23F48052F9
:10510000FB681A62FB68DB697B61FB681B6A3B61B9
:105110007B6923F440737B617B681B027A691343CC
:105120007B617B6923F470437B613B681B039BB20B
:105130007A6913437B613B6923F420433B61BB687D
:105140001B0303F420433A6913433B61FB687A690C
:10515000DA61FB683A691A6200BF1C37BD465DF828
:10516000047B704780B485B000AF786039607B689D
:1051700093F83C30012B01D102236DE07B680122C2
:1051800083F83C207B68022283F83D207B681B6803
:105190005B68FB607B681B689B68BB607B681B6807
:1051A000304A934204D07B681B682F4A934208D14F
:1051B000FB6823F47003FB603B685B68FA68134389
:1051C000FB60FB6823F07003FB603B681B68FA68B8
:1051D0001343FB607B681B68FA685A607B681B6836
:1051E000204A934222D07B681B68B3F1804F1DD0C8
:1051F0007B681B681D4A934218D07B681B681C4A59
:10520000934213D07B681B681A4A93420ED07B6886
:105210001B68154A934209D07B681B68164A934263
:1052200004D07B681B68154A93420CD1BB6823F0FD
:105230008003BB603B689B68BA681343BB607B68B4
:105240001B68BA689A607B68012283F83D207B68FE
:10525000002283F83C20002318461437BD465DF831
:10526000047B70470000014000040140000400403E
:1052700000080040000C00400018004000400140C1
:1052800080B485B000AF786039600023FB607B6834
:1052900093F83C30012B01D1022365E07B680122A9
:1052A00083F83C20FB6823F0FF023B68DB68134374
:1052B000FB60FB6823F440723B689B681343FB6010
:1052C000FB6823F480623B685B681343FB60FB6808
:1052D00023F400623B681B681343FB60FB6823F404
:1052E00080523B681B691343FB60FB6823F4005248
:1052F0003B685B691343FB60FB6823F480423B68B7
:105300009B6A1343FB60FB6823F470223B689B6934
:105310001B041343FB607B681B68164A934204D04E
:105320007B681B68144A934215D1FB6823F4700212
:105330003B685B6A1B051343FB60FB6823F08072CC
:105340003B68DB691343FB60FB6823F000723B683A
:105350001B6A1343FB607B681B68FA685A647B68AE
:10536000002283F83C20002318461437BD465DF820
:10537000047B7047000001400004014080B582B00A
:1053800000AF78607B68002B01D1012342E07B688D
:10539000D3F88430002B06D17B68002283F880206C
:1053A0007868FBF717FE7B682422C3F884207B68AB
:1053B0001B681A687B681B6822F001021A60786813
:1053C00000F0C2F80346012B01D1012322E07B68E3
:1053D0009B6A002B02D0786800F016FE7B681B6881
:1053E0005A687B681B6822F490425A607B681B688D
:1053F0009A687B681B6822F02A029A607B681B68A7
:105400001A687B681B6842F001021A60786800F035
:105410009DFE034618460837BD4680BD80B58AB05C
:1054200002AFF860B9603B601346FB80FB68D3F8BD
:105430008430202B40F08380BB68002B02D0FB8897
:10544000002B01D101237BE0FB6893F88030012B16
:1054500001D1022374E0FB68012283F88020FB68FD
:105460000022C3F88C20FB682122C3F88420FBF7BC
:1054700027FF7861FB68FA88A3F85420FB68FA8854
:10548000A3F85620FB689B68B3F5805F08D1FB68E2
:105490001B69002B04D10023FB61BB68BB6103E0E7
:1054A000BB68FB610023BB61FB68002283F880209E
:1054B0002CE03B6800937B6900228021F86800F0B3
:1054C00090FE0346002B01D0032339E0FB69002B3B
:1054D0000BD1BB691B881A46FB681B68C2F3080224
:1054E0009A62BB690233BB6107E0FB691A78FB680B
:1054F0001B689A62FB690133FB61FB68B3F85630A5
:105500009BB2013B9AB2FB68A3F85620FB68B3F844
:1055100056309BB2002BCCD13B6800937B690022B4
:105520004021F86800F05DFE0346002B01D0032304
:1055300006E0FB682022C3F88420002300E0022359
:1055400018462037BD4680BDB0B58EB000AF78603C
:10555000002387F832307B689A687B681B691A439E
:105560007B685B691A437B68DB6913437B637B68F9
:105570001B681A68BF4B13407A681268796B0B433B
:1055800013607B681B685B6823F440517B68DA68B2
:105590007B681B680A435A607B689B697B637B68F6
:1055A0001B68B54A934204D07B681B6A7A6B13432D
:1055B0007B637B681B689A68B04B13407A681268FB
:1055C000796B0B4393607B681B68DB6A23F00F01E8
:1055D0007B685A6A7B681B680A43DA627B681B68CF
:1055E000A74A934276D1A74B5B6D03F03803282B73
:1055F0006CD801A252F823F09D560008CD56000841
:10560000CD560008CD560008CD560008CD560008EE
:10561000CD560008CD560008A5560008CD56000806
:10562000CD560008CD560008CD560008CD560008CE
:10563000CD560008CD560008AD560008CD560008DE
:10564000CD560008CD560008CD560008CD560008AE
:10565000CD560008CD560008B5560008CD560008B6
:10566000CD560008CD560008CD560008CD5600088E
:10567000CD560008CD560008BD560008CD5600088E
:10568000CD560008CD560008CD560008CD5600086E
:10569000CD560008CD560008C5560008012387F8EE
:1056A000333022E2042387F833301EE2082387F8E0
:1056B00033301AE2102387F8333016E2202387F8BC
:1056C000333012E2402387F833300EE2802387F82C
:1056D00033300AE27B681B686B4A934230D1694BD6
:1056E0005B6D03F00703052B26D801A252F823F0C7
:1056F00009570008115700081957000821570008DA
:105700002957000831570008002387F83330ECE1AF
:10571000042387F83330E8E1082387F83330E4E1E5
:10572000102387F83330E0E1202387F83330DCE1C1
:10573000402387F83330D8E1802387F83330D4E131
:105740007B681B68514A934230D14E4B5B6D03F02E
:105750000703052B26D801A252F823F0755700083D
:105760007D570008855700088D5700089557000899
:105770009D570008002387F83330B6E1042387F8EB
:105780003330B2E1082387F83330AEE1102387F8D5
:105790003330AAE1202387F83330A6E1402387F88D
:1057A0003330A2E1802387F833309EE17B681B68A9
:1057B000374A934230D1334B5B6D03F00703052B1F
:1057C00026D801A252F823F0E1570008E957000853
:1057D000F1570008F9570008015800080958000857
:1057E000002387F8333080E1042387F833307CE1ED
:1057F000082387F8333078E1102387F8333074E1D9
:10580000202387F8333070E1402387F833306CE190
:10581000802387F8333068E17B681B681D4A934218
:1058200042D1184B5B6D03F00703052B38D801A25A
:1058300052F823F04D580008555800085D580008EC
:10584000655800086D58000899580008002387F82B
:1058500033304AE1042387F8333046E1082387F8E0
:10586000333042E1102387F833303EE1202387F8BC
:1058700033303AE1F369FFCF000C0058FFF4FF1119
:10588000001001400044025800440040004800401D
:10589000004C004000500040402387F8333024E1A2
:1058A000802387F8333020E17B681B68CC4A934221
:1058B00076D1CC4B5B6D03F03803282B6CD801A25A
:1058C00052F823F0695900089959000899590008BD
:1058D00099590008995900089959000899590008E0
:1058E00099590008715900089959000899590008F8
:1058F00099590008995900089959000899590008C0
:1059000099590008795900089959000899590008CF
:10591000995900089959000899590008995900089F
:1059200099590008815900089959000899590008A7
:10593000995900089959000899590008995900087F
:10594000995900088959000899590008995900087F
:10595000995900089959000899590008995900085F
:105960009959000891590008012387F83330BCE0A9
:10597000042387F83330B8E0082387F83330B4E0E5
:10598000102387F83330B0E0202387F83330ACE0C1
:10599000402387F83330A8E0802387F83330A4E031
:1059A0007B681B68904A934230D18E4B5B6D03F04D
:1059B0000703052B26D801A252F823F0D559000879
:1059C000DD590008E5590008ED590008F5590008AF
:1059D000FD590008002387F8333086E0042387F858
:1059E000333082E0082387F833307EE0102387F8D5
:1059F00033307AE0202387F8333076E0402387F88D
:105A0000333072E0802387F833306EE07B681B68A8
:105A1000764A934230D1734B5B6D03F00703052B3D
:105A200026D801A252F823F0415A0008495A00082A
:105A3000515A0008595A0008615A0008695A00086A
:105A4000002387F8333050E0042387F833304CE0EC
:105A5000082387F8333048E0102387F8333044E0D8
:105A6000202387F8333040E0402387F833303CE090
:105A7000802387F8333038E07B681B685C4A9342A8
:105A800030D1584B9B6D03F00703052B26D801A29C
:105A900052F823F0AD5A0008B55A0008BD5A000864
:105AA000C55A0008CD5A0008D55A0008022387F8C5
:105AB00033301AE0042387F8333016E0082387F8E0
:105AC000333012E0102387F833300EE0202387F8BC
:105AD00033300AE0402387F8333006E0802387F82C
